:080003000000000000000000F5
:0100210022BC
:0100220022BB
:1006910078217C007D007BFF7A0079037E007F0852
:1006A1001200F67B007A0079217D081206F0EF70C6
:1006B10002B2CD85252CAB24AD23AF221202AD8031
:0106C100E256
:10065B0012078C7BFF7A03795D7F807E257D007C82
:10066B00001205DC1207777F0112071A7532FF752E
:10067B003300753421752FFF753000753122120050
:06068B001E12069180FE24
:0F000E007D527C03ED1D70011C144C70F7DFF167
:01001D0022C0
:06078C00E4F5CAF5C922E4
:10062100E4F5E9F5F975D98075DC4275DA4275DBD7
:100631004275F40375F20375F30375FCFF75ECFF66
:1006410075FAFF75EAFF75FBFF75EBFF53A2CFF556
:0A065100B2F5B1F592F591D2DE2268
:10059200EFFB7A007013ED700475F20322E4F5F2BA
:1005A200C374FF9DF5FAF5EA22EB64014A7013ED7C
:1005B200700475F30322E4F5F3C374FF9DF5FBF5B4
:1005C200EB22EF64027012ED700475F40322E4F57D
:0A05D200F4C374FF9DF5FCF5EC2264
:0E06C2000332000000032F000000022D000094
:10071A00E4FDFCC2AF5389F0538E7FFE7B997A03C6
:10072A00F9F812018AC374FF9FFD74FF9E8D8AF542
:07073A008CD2A9C28CD2AFE2
:010741002295
:03001E00D28C225F
:03079200C28C22F4
:03000B0002040CE0
:10040C00C0E0C0F0C083C082C0D075D000C000C0B6
:0D041C0001C002C003C004C005C006C00737
:10042900052EE52E7002052DD39400E52D9400408C
:100439001EAE2DAF2E7C007D0A120135ED4C700FDA
:10044900AA33A934AE02AF01EF4E60031202A7D35B
:10045900E52E9400E52D9400401EAE2DAF2E7C01B3
:100469007DF4120135ED4C700FAA30A931AE02AFFF
:1004790001EF4E60031202A7C3E52E94F4E52D9413
:09048900014006752D00752E00DE
:10049200D007D006D005D004D003D002D001D000BE
:0B04A200D0D0D082D083D0F0D0E03268
:0506D000031D00000005
:0805DC008F248E238D228C2157
:1005E400E4FFC2008B1D8A1E891FC2AF53A23F7550
:1005F4009850AB24AA23A922A8217EC07DA8FC126E
:100604000215E47B04FAF9F8120215C3E49FFFE42F
:0C0614009E8FD7F5D6438E15D2ACD2AF26
:0106200022B7
:100742008B1A8A1B891CAB1AAA1BA91C12011C60DA
:1007520013051CE51C7002051B14F912011CFF1283
:05076200076780E222A0
:0F076700E4FE3000047E0180F9D2008F99AF06C6
:010776002260
:08078400AD07120767AF052263
:030023000205399A
:10053900C0E0C0F0C083C082C0D075D000C000C088
:0D05490001C002C003C004C005C006C00709
:10055600309904C299C200309817C298AF99AA1E62
:10056600A91FAC02AD01ED4C600789828A83120295
:01057600ABD9
:10057700D007D006D005D004D003D002D001D000D8
:0B058700D0D0D082D083D0F0D0E03282
:0D077700120621E4F592F591F5B2F5B122DC
:1002AD008F298D2AD3EF940074809480400BD3E571
:1002BD002A9400748094805018EBFD7C00D3940038
:1002CD0074809480400ED3E52C940074809480400B
:1002DD00037F0122D3ED9400EC64809480400DC225
:1002ED00927D507F01120592D2928016D3E52C9407
:1002FD000074809480400FD2927DAF7F01120592E1
:10030D00C2937D508018D3E5299400748094804069
:10031D0010D2927DAF7F01120592D2937DAFE48012
:10032D0028D3E52A9400748094804010C2927D50A9
:10033D007F01120592C2937D50E4800DC292E4FDBF
:10034D007F01120592C293E4FDFF1205927F0022F8
:1006D50008090000000000000000010800081200E1
:0A06E50000000000000000011100F9
:1006F0008B298A2A892BED64087004E50870037F32
:100700000122A82BAC2AAD297B007A0079097E0052
:0A0710007F081200F6E4F508FF224E
:10035D00E4F521FEE5117007EF64AA700C8000AD85
:10036D0011051174122DF8A607E511C394087480B8
:10037D009480500302040BE4F521E521C394077426
:10038D00809480500C74122521F8E62EFE052180F4
:10039D00E9E519B5061A78097C007D007B007A0025
:1003AD0079127E007F081200F6E4F511750801221E
:1003BD00752101AF217E00C3EF94087480948050A5
:1003CD002F74122521F8E664AA7021C374089FFFCB
:1003DD00E49EFE74122521F9E4FAFB78127C00FDEF
:1003ED001200F6C374089521F5118004052180C310
:0E03FD00C3E5119408748094804003E4F51168
:01040B0022CE
:030000000204AD4A
:0C04AD00787FE4F6D8FD7581340204F479
:10002600E709F608DFFA8046E709F208DFFA803EBC
:1000360088828C83E709F0A3DFFA8032E309F608A9
:10004600DFFA8078E309F208DFFA807088828C8311
:10005600E309F0A3DFFA806489828A83E0A3F608C5
:10006600DFFA805889828A83E0A3F208DFFA804C9F
:1000760080D280FA80C680D4806980F28033801076
:1000860080A680EA809A80A880DA80E280CA8033DF
:1000960089828A83ECFAE493A3C8C582C8CCC58357
:1000A600CCF0A3C8C582C8CCC583CCDFE9DEE78027
:1000B6000D89828A83E493A3F608DFF9ECFAA9F0A6
:1000C600EDFB2289828A83ECFAE0A3C8C582C8CCFC
:1000D600C583CCF0A3C8C582C8CCC583CCDFEADE15
:1000E600E880DB89828A83E493A3F208DFF980CC77
:1000F60088F0EF60010E4E60C388F0ED2402B40470
:100106000050B9F582EB2402B4040050AF23234516
:06011600822390007673C5
:10011C00BB010689828A83E0225002E722BBFE02E1
:09012C00E32289828A83E4932214
:10013500BC000BBE0029EF8DF084FFADF022E4CCAE
:10014500F875F008EF2FFFEE33FEEC33FCEE9DEC77
:10015500984005FCEE9DFE0FD5F0E9E4CEFD22EDBD
:10016500F8F5F0EE8420D21CFEADF075F008EF2F07
:10017500FFED33FD4007985006D5F0F222C398FDF8
:050185000FD5F0EA2295
:10018A00E88FF0A4CC8BF0A42CFCE98EF0A42CFC14
:10019A008AF0EDA42CFCEA8EF0A4CDA8F08BF0A492
:1001AA002DCC3825F0FDE98FF0A42CCD35F0FCEBF1
:1001BA008EF0A4FEA9F0EB8FF0A4CFC5F02ECD39B6
:0F01CA00FEE43CFCEAA42DCE35F0FDE43CFC2223
:1001D90075F008758200EF2FFFEE33FECD33CDCCDD
:1001E90033CCC58233C5829BED9AEC99E582984060
:1001F9000CF582EE9BFEED9AFDEC99FC0FD5F0D63D
:10020900E4CEFBE4CDFAE4CCF9A88222B800C1B966
:100219000059BA002DEC8BF084CFCECDFCE5F0CBA4
:10022900F97818EF2FFFEE33FEED33FDEC33FCEBDD
:1002390033FB10D703994004EB99FB0FD8E5E4F998
:10024900FA227818EF2FFFEE33FEED33FDEC33FC85
:10025900C933C910D7059BE99A4007EC9BFCE99A79
:10026900F90FD8E0E4C9FAE4CCFB2275F010EF2FBE
:10027900FFEE33FEED33FDCC33CCC833C810D707BE
:100289009BEC9AE899400AED9BFDEC9AFCE899F8F9
:0E0299000FD5F0DAE4CDFBE4CCFAE4C8F9228C
:0602A7008A838982E473E2
:1004B90002065BE493A3F8E493A34003F68001F2F8
:1004C90008DFF48029E493A3F85407240CC8C33344
:1004D900C4540F4420C8834004F456800146F6DF13
:1004E900E4800B01020408102040809006C2E47EDB
:1004F900019360BCA3FF543F30E509541FFEE49308
:10050900A360010ECF54C025E060A840B8E493A3CE
:10051900FAE493A3F8E493A3C8C582C8CAC583CAF9
:10052900F0A3C8C582C8CAC583CADFE9DEE780BEB1
:0106EF00000A
:00000001FF
